:100000000C9465000C948D000C948D000C948D0064
:100010000C948D000C948D000C948D000C94A618FB
:100020000C948D000C948D000C948D000C94DC09C4
:100030000C948D000C948D000C948D000C948D000C
:100040000C944A120C948D000C9453150C94A11529
:100050000C948D000C948D000C948D000C948D00EC
:100060000C945A0E0C948D00000000002400270010
:100070002A0000000000250028002B0000000000DE
:1000800023002600290004040404040404040202DA
:100090000202020203030303030301020408102007
:1000A0004080010204081020010204081020000012
:1000B0000007000201000003040600000000000029
:1000C00000000200F000F60C6A1711241FBECFEFEB
:1000D000D4E0DEBFCDBF12E0A0E0B1E0ECE9FCE38C
:1000E00002C005900D92AE30B107D9F714E0AEE032
:1000F000B2E001C01D92AF32B107E1F710E0CAECE7
:10010000D0E004C02297FE010E94111EC43CD1071A
:10011000C9F70E94C0170C944C1E0C940000A0E07C
:10012000B0E0E5E9F0E00C941D1EEC01A880B98078
:10013000CA80DB80A114B104C104D10441F484E27B
:10014000A82E89EDB82E8BE5C82E87E0D82EC601E3
:10015000B5012DE133EF41E050E00E94E01D27EAB8
:1001600031E440E050E00E94801D7B018C01C6011B
:10017000B5012DE133EF41E050E00E94E01DCA01DE
:10018000B9012CEE34EF4FEF5FEF0E94801D6E0D32
:100190007F1D801F911F97FF04C0615070408040F9
:1001A0009048688379838A839B839B01AC015F7746
:1001B000B901CA01CDB7DEB7EAE00C94391E0E943E
:1001C0008F00089585E291E00E948F00089560936A
:1001D00025017093260180932701909328010895AB
:1001E000CF93DF938EE092E06DE10E940910CFE3A0
:1001F000D2E0CE010E940C08239682E0C735D807D2
:10020000C1F788E592E00E94F10BDF91CF9108954C
:100210000F931F93182F062F61E00E94CC13812F9C
:1002200060E00E940B148AE090E00E940513812F89
:1002300061E00E940B148EE690E00E940513812F6E
:1002400060E00E940B148AE090E00E940513802F6A
:1002500060E00E94CC13802F61E020E335E740E0AE
:1002600050E00E94B214CB011F910F910895DF93CB
:10027000CF930F92CDB7DEB788EF93E040E157E21E
:1002800060E070E00E94181888EF93E0BE016F5F95
:100290007F4F41E050E00E944A1804C088EF93E08D
:1002A0000E94F11688EF93E00E94C016892BB1F7E7
:1002B00088EF93E048EE53E060E070E00E94181889
:1002C00081E00F90CF91DF9108951F93CF93DF933B
:1002D00010925702E9E2F1E08FEF819391E0E13370
:1002E000F907D9F71FB7F894C5E3D1E089910E94C7
:1002F0008F1881E0CB33D807C9F785B1807C85B9E9
:1003000084B1807C84B988B1807C88B987B1807CD5
:1003100087B98BB183708BB98AB183708AB91FBFDB
:10032000DF91CF911F9108950F931F93062FE5E35F
:10033000F1E0E80FF11D1081812F61E00E94CC13E4
:10034000E02FF0E0EE0FFF1FE55CFE4F6081718152
:10035000812F20E030E040E050E00E9402191F9120
:100360000F910895E82FF0E0CF01880F991F8E0FAD
:100370009F1FEB51FE4F6081815C9D4F70E044EF09
:1003800051E024EC39E00E945D090895982F81E046
:1003900080935702A92FB0E0FD01E75DFE4F608317
:1003A0006330A9F0643028F4613089F06230A8F439
:1003B00009C0653009F444C0653028F1663009F0A1
:1003C00047C005C0AB5CBE4F8C9162E003C0892F73
:1003D000825F60E00E94CC13089588B190E044E011
:1003E000959587954A95E1F783709070039721F072
:1003F0008DEE92E00E94960D8EE092E060E042E089
:100400000E94C711089588B190E034E095958795D2
:100410003A95E1F783709070039721F08DEE92E0AA
:100420000E94960D88E592E00E946C0C88E592E0AF
:100430000E94950C88E592E066E00E94AA0C08955F
:100440008EE061E00E94CC138FE060E00E94CC134C
:1004500008950F931F9308EF13E0C80140E052EC9A
:1004600061E070E00E94DC15C80148EC50E060E0FB
:1004700070E00E941818C8010E941A1780E00E94BC
:100480004A130E94611B1F910F910895EF92FF92F2
:100490000F931F93062F68EFE62E63E0F62E602F72
:1004A000629566956695637070E090E08F709070CD
:1004B000880F991F880F991F682B792BC7010E94FD
:1004C0002A1710E00F7310700064C701602F0E949C
:1004D0002A171F910F91FF90EF900895682F70E0F9
:1004E0006F717070606A88EF93E00E942A17089518
:1004F000682F70E0606C88EF93E00E942A170895DF
:100500004F925F926F927F929F92AF92BF92CF92E3
:10051000DF92EF92FF920F931F93CF93DF937C01B3
:100520000E949E1220917C0230917D0240917E02B9
:1005300050917F02621B730B840B950B00E010E05F
:10054000E616F7060807190708F0DBC0992405E648
:10055000402E512C612C712CA92DB0E0FD01E75DDE
:10056000FE4FE081E33009F45CC0E43028F4E13070
:10057000A1F0E230C8F50AC0E53009F48EC0E530DC
:1005800008F45BC0E63009F0ADC04BC0AB5CBE4FB9
:100590008C910E945F14682F23C0892D0E944A13FA
:1005A00000D000D0AA2797FDA095BA2FEDB7FEB7CF
:1005B0004182528263827482BC01CD0120E030E02E
:1005C00040E050E0E12C14E0F12E012D112DAA2481
:1005D000BB2465010E94181B0F900F900F900F9085
:1005E000892D0E9446027EC08EE092E00E9420107B
:1005F0008EE092E00E941410682F88E00E9446026C
:100600008EE092E00E941810682F89E00E94460256
:100610008EE092E00E941C10682F8AE00E94460241
:1006200060C0892D0E944A13682F192F892D0E94BE
:100630004602812F0E94780255C088E592E067E665
:1006400072E049E652E02BE632E00DE612E0BFE64A
:10065000EB2EB2E0FB2EA1E7CA2EA2E0DA2E0E941A
:10066000F50BC7E6D2E0F8E0FF2E099119918F2D26
:10067000602F0E944602812F992787FD9A958F71DE
:100680000E946E02812F8295869587700E94780263
:10069000F394FEE0FF1649F724C08EE06FE00E945D
:1006A0000801809373029093740225E781339207C7
:1006B00014F080E395E78C0197FF02C000E010E0A2
:1006C000892D602F0E944602812F992787FD9A95D8
:1006D0008F710E946E02812F8295869587700E948D
:1006E00078029394939487E0891508F035CF0E949F
:1006F0009E1260937C0270937D0280937E029093A1
:100700007F02DF91CF911F910F91FF90EF90DF90CB
:10071000CF90BF90AF909F907F906F905F904F90E1
:1007200008950F931F9308EF13E0C80160E00E9443
:100730002A17C80166E00E942A17C80163E00E94D8
:100740002A171F910F910895EF92FF920F931F9315
:10075000DF93CF9300D00F92CDB7DEB78C017B0132
:1007600088EF93E00E94C016181619060CF040C0DE
:1007700088EF93E0BE016F5F7F4F43E050E00E943F
:100780004A180397ACF129814A81922F940F8B81EB
:10079000981731F088EF93E061E80E942A1728C08B
:1007A000822F992787FD90959C0154E035952795D8
:1007B0005A95E1F727703070F801318320838F70EC
:1007C00090709695982F882797958795242F332793
:1007D00027FD30952F773070822B932BF701918373
:1007E000808388EF93E060E80E942A1781E001C0CF
:1007F00080E00F900F900F90CF91DF911F910F919C
:10080000FF90EF9008958F929F92AF92BF92DF92E8
:10081000EF92FF920F931F93DF93CF93CDB7DEB785
:1008200028970FB6F894DEBF0FBECDBFD82E87E055
:100830008D1508F4AFC0DD2079F10D2D10E04801D1
:100840000894811C911C7E010894E11CF11C570145
:10085000A00EB11E88EF93E0B701A4010E944A18D0
:10086000081719070CF096C0F5012081F70190E0F8
:100870008191980F8E2F8E198D15D0F3921731F428
:1008800088EF93E060E80E942A1706C088EF93E0A3
:1008900061E80E942A17DECF0E94370188EF93E0BB
:1008A00060E071E00E94151868EC70E080E090E074
:1008B0000E94AC1204C088EF93E00E94F11688EF0A
:1008C00093E00E94C016892BB1F7DD2071F588EF07
:1008D00093E067E071E00E94151888EF93E08E01C5
:1008E0000F5F1F4FB80147E050E00E944A1807977A
:1008F0000CF450C088EF93E0B80147E050E00E944C
:100900004A1807970CF446C068EC70E080E090E06D
:100910000E94AC1204C088EF93E00E94F11688EFA9
:1009200093E00E94C016892BB1F788EF93E06EE048
:1009300071E00E941518BE016F5F7F4FDD2029F422
:1009400088EF93E047E050E004C088EF93E04D2D3E
:1009500050E00E94CF1788EF93E06CE171E00E94B5
:10096000151868EC70E080E090E00E94AC1288EF0F
:1009700093E06FE171E00E94151804C088EF93E0E6
:100980000E94F11688EF93E00E94C016892BB1F700
:1009900081E001C080E028960FB6F894DEBF0FBE5C
:1009A000CDBFCF91DF911F910F91FF90EF90DF901E
:1009B000BF90AF909F908F900895CF92DF92EF926B
:1009C000FF920F931F93CF93DF93EB018330910539
:1009D00009F4D5C0843091055CF48130910509F4A7
:1009E00091C0823091050CF0B1C0892B89F079C19A
:1009F0008530910509F4E3C0853091050CF4D4C02D
:100A00008630910509F45AC1079709F06AC165C19A
:100A100072FD11C08FE392E00E94260882E492E00A
:100A20000E94260802E010E034E0E32EF12C23E0DF
:100A3000C22ED12C10C085E492E00E94260888E4E2
:100A400092E00E94260807E010E098E0E92EF12CE1
:100A500085E0C82ED12CCE01880F892F881F990BD5
:100A6000919587709070CF77D07081309105C9F4DF
:100A7000802F61E00E94CC138E2D61E00E94CC1388
:100A8000209719F4802F61E021C0219709F029C136
:100A9000802F60E00E940B148E2D61E00E940B14E9
:100AA00020C182309105B9F4802F61E00E94CC13FF
:100AB0008E2D61E00E94CC13209719F4802F61E005
:100AC000E9CF219709F00DC1802F60E00E940B143F
:100AD0008E2D60E0E3CF049709F003C1BE018827A3
:100AE00077FD8095982F0E94691C23E333E343E24E
:100AF00050E40E941D1D0E94361C9B01AC018C2DF0
:100B0000B9015AC07B011F2D1770812F0E94B201BD
:100B100080912C02882379F080912D02E82FF0E05B
:100B2000DF01A15DBD4F1C93E95CFD4FC0838F5F6A
:100B300080932D02D6C083E0189FC0011124815CF0
:100B40009D4F6C2F70E00E94F508CBC07B01EF2D0C
:100B5000E770CB01880F892F881F990B919580FF33
:100B600007C09B012F77622F8E2F0E949401B9C07E
:100B7000F0E0EB5CFE4F80810E948F18B2C0ED2F39
:100B8000F0E0E770F070EB5CFE4F1081812F61E0C8
:100B90000E94CC13CC0FCD2FCC1FDD0BD195CE01F5
:100BA0008170682F812F7ACFED2FF0E0E770F07021
:100BB000EB51FE4F808170E00E946C1392C0CB011C
:100BC000880F892F881F990B91958F70F1F466FD1E
:100BD0000AC010922D0281E080932C029B012F739A
:100BE00020932E027EC010922C028FE292E067E3E7
:100BF00072E040912D0220912E020E949E0688EF05
:100C000093E06FE90E942A176CC0813061F4E4E040
:100C100076956795EA95E1F767709E012770822FB8
:100C20000E94C6015EC0823019F40E94650159C05D
:100C3000833031F49B012770822F0E94030451C03E
:100C4000843059F40E94910388EF93E048EE53E01A
:100C500060E070E00E94181844C0863009F041C07E
:100C600066FD05C080937502109276023AC000912D
:100C7000770210E0000F111F86EA92E0B8010E948F
:100C8000B50CF82E0F5F1F4F86EA92E0B8010E9464
:100C9000B50C3F2D20E0082F10E0022B132B8EE027
:100CA000602F0E944602812F8F710E946E02812F59
:100CB0008295869587700E94780213C08091750294
:100CC000863079F480917602E82FF0E0E958FD4F04
:100CD00060838F5F8093760204C088EF93E00E9468
:100CE0005A16DF91CF911F910F91FF90EF90DF90F7
:100CF000CF900895DF93CF9300D000D0CDB7DEB76B
:100D0000CE010196BE016D5F7F4F0E94A403882330
:100D100031F06B817C8189819A810E94DD04809110
:100D20005702882321F084E690E00E9480020F9011
:100D30000F900F900F90CF91DF9108952F923F92D7
:100D40004F925F926F927F928F929F92AF92BF92DB
:100D5000CF92DF92EF92FF920F931F93DF93CF9387
:100D6000CDB7DEB7E8970FB6F894DEBF0FBECDBFA4
:100D70009EA78DA71B014FA728AB79E0472E512CCA
:100D80004C0E5D1E772488249924242F30E038AF40
:100D90002FAB68C0EDA5FEA5E80DF91D808143E0ED
:100DA000849FC0011124815C9D4F0E94A008682E81
:100DB000F101E80DF91D608170E0681B7109882759
:100DC00077FD8095982F0E94691C7B018C0120E0A3
:100DD00030E040E050E00E94191D18161CF4570145
:100DE000680106C057016801D7FAD094D7F8D094AB
:100DF000672D70E0882777FD8095982F0E94691CE9
:100E00009B01AC01C601B5010E94191D18168CF496
:100E1000C801B70120E030E040E050E00E94191D19
:100E200018161CF4C801B7010AC0C801B7019058D0
:100E300006C0672D70E080E090E00E94671C0E9471
:100E40003B1C762EE1E0F0E0EC0FFD1FE80DF91DF4
:100E50006082D201ED92FD920D931D932D010894B5
:100E6000811C911CEFA9F8AD8E169F060CF492CF51
:100E70008E01075F1F4F7801FFA58F2F90E0880F2D
:100E8000991F880F991FE80EF91EA72CBB24CC24AC
:100E9000DD2413C0C601B5010E94671C9B01AC0193
:100EA000D8016D917D918D919C910E94CE1BF8018E
:100EB00061937193819391938F010E151F0551F7E3
:100EC00051E0852E912C272D30E03AAB29AB98A923
:100ED000892F90E0A0E0B0E08BAB9CABADABBEAB9C
:100EE00077C0A1E08A16910431F40E949E1269A78E
:100EF0007AA78BA79CA749E0242E312C2C0E3D1EEF
:100F0000AA24BB242401662457FC6094762C38C0A4
:100F1000EDA5FEA5EA0DFB1D0081B3E00B9F80014E
:100F20001124015C1D4FE1E0F0E0EC0FFD1FEA0D24
:100F3000FB1D608170E0882777FD8095982F0E94C7
:100F4000691C6B017C01C301B2010E94691CF101A3
:100F500021913191419151911F010E941D1D9B01D1
:100F6000AC01C701B6010E946A1B0E94361C9B019E
:100F7000AC01C801B9010E94F5080894A11CB11C7C
:100F80002FA938ADA216B3061CF280912C0288233B
:100F900031F50E949E1229A53AA54BA55CA5621BBE
:100FA000730B840B950B2BA93CA94DA95EA9621765
:100FB00073078407950798F40E947A06E6CF0E948B
:100FC0009E1269A77AA78BA79CA70894811C911CE5
:100FD00049A95AA9481559050CF083CF04C080913E
:100FE0002C02882361F3E8960FB6F894DEBF0FBE9B
:100FF000CDBFCF91DF911F910F91FF90EF90DF90C8
:10100000CF90BF90AF909F908F907F906F905F90A8
:101010004F903F902F900895FC01809180028C307A
:1010200090F480838F5F80938002815090E0FC0178
:10103000EE0FFF1FE80FF91FEF57FD4F8CED95E006
:101040009283818308958FEF80830895DC018C91D2
:1010500090E0FC01EE0FFF1FE80FF91FEF57FD4F67
:1010600080818F7B80838C916CE00E949F1D90E03B
:10107000AC01440F551F480F591F440F551F440F13
:10108000551F20E030E0C901840F951FFC01EE0FD1
:10109000FF1FE80FF91FEF57FD4F808186FD05C048
:1010A0002F5F3F4F2C30310571F70895FC013081DF
:1010B0003C3078F58181992787FD909548E850E08C
:1010C000481B590B440F551F440F551F64177507D4
:1010D00084F08281992787FD909548E552E0481B6E
:1010E000590B440F551F440F551F641775070CF417
:1010F000AB012FB7F894832F90E0FC01EE0FFF1F98
:10110000E80FF91FEF57FD4F425050405283418383
:101110002FBF0895FC0180818F3F19F420E030E05B
:101120000DC090E0FC01EE0FFF1FE80FF91FEF5715
:10113000FD4F218132813F712E5F3F4FC9010895DC
:10114000AF92BF92CF92DF92EF92FF920F931F93D5
:101150008C010E948A0800D000D00196AA2797FD32
:10116000A095BA2FF8016181772767FD709528E86F
:1011700030E0261B370B220F331F220F331F44276B
:1011800037FD4095542F6281772767FD7095E8E51C
:10119000EE2EE2E0FE2EE61AF70AEE0CFF1CEE0C35
:1011A000FF1C0027F7FC0095102F64EBA62EB12C36
:1011B000C12CD12CEDB7FEB7A182B282C382D482FA
:1011C000BC01CD01AA24BB2465010E94181B0F900D
:1011D0000F900F900F90CB011F910F91FF90EF9008
:1011E000DF90CF90BF90AF900895AF92BF92CF9213
:1011F000DF92EF92FF920F931F93CF93DF93EC0157
:101200009B0182E0603278070CF048C077FF03C092
:1012100020E030E005C0653B710514F024EB30E0C0
:1012200000D000D0B901882777FD8095982F2981BB
:10123000332727FD3095E8E8AE2EB12CA21AB30A69
:10124000AA0CBB1CAA0CBB1CCC24B7FCC094DC2C85
:10125000EA81FF27E7FDF09528E532E02E1B3F0BE2
:10126000220F331F220F331F442737FD4095542F81
:10127000EDB7FEB7218332834383548320E030E00F
:1012800040E050E004EBE02EF12C012D112D0E94E6
:10129000181B9B010F900F900F900F90CE01B9017A
:1012A0000E945608DF91CF911F910F91FF90EF9010
:1012B000DF90CF90BF90AF900895CF92DF92EF92E2
:1012C000FF921F93CF93DF93EC01162F7A016901F0
:1012D00088818C3008F064C0862F61E00E94CC13B6
:1012E000888190E0FC01EE0FFF1FE80FF91FEF5718
:1012F000FD4F1F738081807C812B808380E292E090
:101300008E199F0964E070E00E94AB1D698380E63E
:1013100099E08C199D0964E070E00E94AB1D6A831E
:10132000A8818A2F6CE00E949F1D682F70E0AB019E
:10133000440F551F460F571F440F551F440F551F8D
:1013400020E030E0C901840F951FFC01EE0FFF1F64
:10135000E80FF91FEF57FD4F808186FD15C02F5F05
:101360003F4F2C30310571F724C01092800082E08D
:10137000809381001092850010928400B19A809130
:101380006F00826080936F008A2F90E0FC01EE0F67
:10139000FF1FE80FF91FEF57FD4F808180648083A6
:1013A0008881DF91CF911F91FF90EF90DF90CF90D8
:1013B0000895672BD1F2E8CF1F920F920FB60F92CC
:1013C00011242F933F934F935F936F937F938F934A
:1013D0009F93AF93BF93EF93FF938091A50287FFF5
:1013E00005C010928500109284002BC02091A502A8
:1013F000332727FD30958091800290E02817390728
:1014000004F58091A502992787FD9095FC01EE0FC8
:10141000FF1FE80FF91FEF57FD4F808186FF11C0B6
:101420008091A502992787FD9095FC01EE0FFF1F83
:10143000E80FF91FEF57FD4F80818F7360E00E9426
:101440000B148091A5028F5F8093A5022091A502C5
:10145000332727FD30958091800290E028173907C7
:101460000CF04EC08091A5028C300CF049C0209148
:101470008400309185008091A502992787FD909581
:10148000FC01EE0FFF1FE80FF91FEF57FD4F8181A1
:101490009281280F391F3093890020938800809112
:1014A000A502992787FD9095FC01EE0FFF1FE80F1D
:1014B000F91FEF57FD4F808186FF2BC08091A50259
:1014C000992787FD9095FC01EE0FFF1FE80FF91F8C
:1014D000EF57FD4F80818F7361E00E940B1419C09C
:1014E00080E29EE405C0809184009091850004967E
:1014F00090938900809388008FEF8093A50209C0A4
:101500008091840090918500049680529E4440F31F
:10151000EACFFF91EF91BF91AF919F918F917F9112
:101520006F915F914F913F912F910F900FBE0F9050
:101530001F901895EF92FF920F931F93CF93DF9315
:10154000582F162FE42E022FF32E8DEE92E0652FEA
:101550000E94BC0C8DEE92E0612F0E943E0D202F68
:101560003F2DC901EC0110E006C08DEE92E06991BB
:101570000E943E0D1F5F1E15C0F38DEE92E00E948B
:10158000810D90E0882309F491E0892FDF91CF91BC
:101590001F910F91FF90EF900895DF93CF930F92DB
:1015A000CDB7DEB7498341E09E012F5F3F4F0E94D8
:1015B0009A0A0F90CF91DF9108955F926F927F9278
:1015C0008F929F92AF92BF92CF92DF92EF92FF9253
:1015D0000F931F93CF93DF93F82EE62E542E6901BD
:1015E00058018DEE92E06F2D0E94BC0C8DEE92E0C2
:1015F0006E2D0E943E0D8DEE92E00E94810D8DEECB
:1016000092E06F2D0E94BC0C8DEE92E06F2D452D67
:101610000E94920D0E949E123B014C01E60178014E
:1016200000E010E0CE018C19D82E8DEE92E00E94E1
:10163000C60C892B09F442C0A114B10459F00E94D0
:101640009E1266197709880999096E157F0580072A
:10165000910730F48DEE92E00E94CF0C8993E2CF97
:101660000E949E126619770988099909950140E040
:1016700050E0621773078407950758F02D2D332724
:1016800027FD3095852D90E02817390714F4DD24C7
:10169000DA948DEE92E00E94810D8D2DDF91CF9135
:1016A0001F910F91FF90EF90DF90CF90BF90AF9080
:1016B0009F908F907F906F905F900895A114B104D8
:1016C00041F3CECF0F931F93FA01890141E09F01AF
:1016D0000E94DD0A1F910F910895DF92EF92FF9211
:1016E0000F931F93DF93CF930F92CDB7DEB7E82E02
:1016F000D62EF42E122F2091310130913201AE01FD
:101700004F5F5F4F0E94620B882341F1212F30E031
:101710004F2D50E04F5F5F4F421B530B81E090E035
:1017200002C0880F991F1A95E2F70197042E02C094
:10173000880F991F0A94E2F7202F30E002C0220F91
:10174000331F4A95E2F7482F40955981452382235C
:10175000482B49838E2D6D2D0E94CD0A0F90CF917D
:10176000DF911F910F91FF90EF90DF900895EF921E
:10177000FF920F931F93DF93CF930F92CDB7DEB7F6
:10178000F82EE62E042F122F2091310130913201D4
:10179000AE014F5F5F4F0E94620B2981112351F010
:1017A00081E090E002C0880F991F0A95E2F7422F6E
:1017B000482B0AC081E090E002C0880F991F0A956B
:1017C000E2F7482F4095422349838F2D6E2D0E94CA
:1017D000CD0A0F90CF91DF911F910F91FF90EF9065
:1017E0000895FC0188E6808308952F923F924F92DE
:1017F0005F926F927F928F929F92AF92BF92CF92A1
:10180000DF92EF92FF920F931F935C014B013A011D
:10181000290118019C012F5F3F4F00913101109168
:101820003201FC0180816BE34EE00E94DD0AF5018C
:10183000918180E0228130E0822B932BF40191830F
:101840008083F501938180E0248130E0822B932B0B
:10185000F30191838083F501958180E0268130E05A
:10186000822B932BF20191838083F501918580E097
:10187000228530E0822B932BF10191838083F50147
:10188000938580E0248530E0822B932BF7019183B0
:101890008083F501958580E0268530E0822B932BAF
:1018A000F601918380831F910F91FF90EF90DF905D
:1018B000CF90BF90AF909F908F907F906F905F90F0
:1018C0004F903F902F900895FC01262F80816BE66A
:1018D00046E00E94B70B0895FC0180816BE647E06B
:1018E00021E00E94B70B08950F93FC01062F808121
:1018F0006BE642E023E00E946D0B0F9108950F9379
:10190000FC01062F80816CE144E022E00E946D0B17
:101910000F9108950F93FC01062F80816BE144E045
:1019200022E00E946D0B0F9108950F931F938C017D
:1019300061E00E94740CC80160E00E948A0CC8013A
:1019400060E00E947F0CC80160E00E94640C1F915F
:101950000F9108950F93FC01062F80816AE142E008
:1019600023E00E946D0B0F910895F999FECF72BD8F
:1019700061BDF89A80B5089581E08093EC02609390
:10198000C9021092EA021092EB0208952091C80257
:1019900030E08091C702281B3109C90108954091A8
:1019A000C7028091C802481718F02FEF3FEF0AC016
:1019B000E42FF0E0E955FD4F8081282F30E04F5FA4
:1019C0004093C702C9010895E091C7028091C802FF
:1019D000E81718F0EFEFFFEF06C0F0E0E955FD4F14
:1019E0008081E82FF0E0CF01089508951092F00271
:1019F0001092EF0288EE93E0A0E0B0E08093F10255
:101A00009093F202A093F302B093F40281EF91E07D
:101A10009093EE028093ED020895CF92DF92EF92C1
:101A2000FF920F931F93CF93DF937C016B018A0189
:101A30008091EC028823A1F0C0E0D0E00DC0D70176
:101A4000ED91FC91D601AC0FBD1F0190F081E02D0E
:101A5000C7016C9109952196C017D10780F304C086
:101A6000CB01642F0E943F0EC801DF91CF911F91DF
:101A70000F91FF90EF90DF90CF900895DF93CF9379
:101A80000F92CDB7DEB7FC0169838091EC02882309
:101A9000C9F08091EB02803238F081E090E09383CE
:101AA000828320E030E015C08091EA02E82FF0E068
:101AB000E653FD4F998190838F5F8093EA02809374
:101AC000EB0205C0CE01019661E00E943F0E21E0CD
:101AD00030E0C9010F90CF91DF9108950F93062F49
:101AE0008091C9026AEC72E04091EB0221E00E9411
:101AF000EA0D1092EA021092EB021092EC020F91A2
:101B0000089561E00E946E0D0895413208F040E2B0
:101B1000862F67EA72E00E94A10D1092C70280939F
:101B2000C802089521E00E94850D08951092C70211
:101B30001092C8021092EA021092EB020E94EB0F80
:101B40000895382F413210F040E042C08091F902F0
:101B50008823E1F791E09093F9022093FB028FEF45
:101B600080936603109221034150409322034F5FFC
:101B70009093FA028091FA02330F832B8093FA023A
:101B80008091FC02813041F41092FC028091FA02B3
:101B90008093BB0085EC01C085EE8093BC008091F2
:101BA000F9028130E1F380912103841710F4409110
:101BB000210320E030E00AC0FB01E20FF31FD9014E
:101BC000AF5FBC4F8C9180832F5F3F4F2417A0F3F2
:101BD000842F08950F931F93582F122F413210F026
:101BE00081E04AC08091F9028823E1F782E0809386
:101BF000F9020093FB028FEF80936603109221039A
:101C000040932203A1E0B3E0FB0102C081918D93D8
:101C10008E2F861B8417D0F31092FA028091FA025D
:101C2000550F852B8093FA028091FC02813041F49C
:101C30001092FC028091FA028093BB0085EC01C0F7
:101C400085EE8093BC00112321F08091F90282304F
:101C5000E1F3809166038F3F11F480E00DC0809125
:101C60006603803211F482E007C0809166038033FE
:101C700011F084E001C083E01F910F910895482F77
:101C8000613210F081E008958091F902843011F002
:101C900082E0089560934403A3E2B3E0842F9C01A3
:101CA000F90102C081918D938E2F841B8617D0F38A
:101CB00080E008951F920F920FB60F9211242F9378
:101CC0003F934F935F936F937F938F939F93AF93C4
:101CD000BF93EF93FF938091B90090E0887F90705D
:101CE0008036910509F4F2C081369105CCF5883231
:101CF000910509F47BC089329105B4F480319105D6
:101D000009F46FC0813191053CF4009709F447C193
:101D1000089709F04FC165C08831910509F466C084
:101D2000809709F047C182C08034910509F4A4C0AE
:101D30008134910544F48033910509F482C0C89739
:101D400009F038C189C08035910509F489C088350A
:101D5000910509F496C08834910509F02BC1AEC0F5
:101D60008839910509F413C189399105ECF4883754
:101D7000910509F4ABC0893791054CF4883691057B
:101D800009F4A4C08037910509F014C19FC08838B8
:101D9000910509F4FCC08039910509F49DC0803893
:101DA000910509F007C198C0803B910509F4C6C0B0
:101DB000813B91054CF4803A910509F49FC0883A23
:101DC000910509F0F7C0BAC0803C910509F4E3C061
:101DD000883C910509F4DFC0883B910509F0EAC011
:101DE000C2C08091FA028093BB00CFC090912103C2
:101DF00080912203981768F490912103E92FF0E075
:101E0000EF5FFC4F80818093BB009F5F9093210325
:101E1000BCC08091FB02882309F44BC085ED809300
:101E2000BC008091BC0084FDFCCFC2C080E28093E6
:101E3000660385ED8093BC008091BC0084FDFCCFDF
:101E4000B7C080E38093660385ED8093BC008091EA
:101E5000BC0084FDFCCFACC088E3809366039BC0CC
:101E6000809121039091BB00E82FF0E0EF5FFC4FE1
:101E700090838F5F809321039091210380912203AF
:101E800082C0809121039091BB00E82FF0E0EF5FCA
:101E9000FC4F90838F5F809321038091FB02882306
:101EA00041F085ED8093BC008091BC0084FDFCCFA7
:101EB0007FC081E08093FC0284EA6EC085ED809350
:101EC000BC008091BC0084FDFCCF72C083E0809395
:101ED000F9021092650359C080916503803208F0C1
:101EE00056C0809165039091BB00E82FF0E0EB5B5A
:101EF000FC4F90838F5F8093650347C0809165039B
:101F0000803230F4E0916503F0E0EB5BFC4F10822F
:101F100085ED8093BC008091BC0084FDFCCF1092C5
:101F2000F90260916503E091FF02F091000385E4FE
:101F300093E070E00995109265032DC084E08093D2
:101F4000F9021092430310924403E091FD02F091D4
:101F5000FE02099580914403882329F481E080934F
:101F600044031092230390914303E92FF0E0ED5DC9
:101F7000FC4F80818093BB009F5F909343039091BF
:101F8000430380914403981710F485EC01C085E861
:101F90008093BC000FC085EC8093BC0009C01092F8
:101FA000660385ED8093BC008091BC0084FDFCCF6E
:101FB0001092F902FF91EF91BF91AF919F918F9194
:101FC0007F916F915F914F913F912F910F900FBE35
:101FD0000F901F9018951092F90281E08093FB02F8
:101FE0001092FC0282E161E00E940B1483E161E047
:101FF0000E940B14E9EBF0E080818E7F808380816A
:102000008D7F808380E28093B80085E48093BC005C
:102010000895FC01608380EE9EE2A5E6B2E4828F23
:10202000938FA48FB58F0895FC01838194810895C7
:10203000FC01858196810895FC0187819085089532
:10204000EF92FF920F931F93CF93DF93EC018DEEEE
:1020500092E068810E94BC0C8DEE92E060E00E94EC
:102060003E0D8DEE92E060E00E946E0D68818D85E0
:10207000882311F444E001C047E08DEE92E00E9415
:10208000920D8DEE92E00E94C60C892B09F4C5C01A
:102090008DEE92E00E94CF0C89838D85882309F410
:1020A00061C08DEE92E00E94CF0C182F8DEE92E071
:1020B0000E94CF0C312F20E0280F391F3C832B8347
:1020C000C90160E470E00E94AB1D882777FD809510
:1020D000982F0E94691C29853A854B855C850E9452
:1020E0001D1D6E877F87888B998B8DEE92E00E94F5
:1020F000CF0C182F8DEE92E00E94CF0C312F20E0F4
:10210000280F391F3E832D83C90160E470E00E94CF
:10211000AB1D882777FD8095982F0E94691C298523
:102120003A854B855C850E941D1D6A8B7B8B8C8B51
:102130009D8B8DEE92E00E94CF0C182F8DEE92E0D9
:102140000E94CF0C312F20E0280F391F38872F83B2
:10215000C90160E470E00E94AB1D882777FD80957F
:10216000982F4FC08DEE92E00E94CF0C982F80E008
:1021700060E071E00E94AB1D7C836B838DEE92E08A
:102180000E94CF0C982F80E060E071E00E94AB1DB0
:102190007E836D838DEE92E00E94CF0C982F80E0BD
:1021A00060E071E00E94AB1D7B0178876F836B81DB
:1021B0007C81882777FD8095982F0E94691C29854E
:1021C0003A854B855C850E941D1D6E877F87888BB5
:1021D000998B6D817E81882777FD8095982F0E944D
:1021E000691C29853A854B855C850E941D1D6A8B7B
:1021F0007B8B8C8B9D8B0027F7FC0095102FC801E3
:10220000B7010E94691C29853A854B855C850E942F
:102210001D1D6E8B7F8B888F998FDF91CF911F91C2
:102220000F91FF90EF900895FF920F931F938C01F1
:10223000F62E8DEE92E0F80160810E94BC0C8DEECE
:1022400092E06F2D0E943E0D8DEE92E060E00E94C4
:102250006E0D8DEE92E0F801608141E00E94920DDA
:102260008DEE92E00E94C60C892B11F480E004C030
:102270008DEE92E00E94CF0C1F910F91FF90089578
:102280001F93CF93DF93EC018DEE92E068810E9463
:10229000BC0C8DEE92E06AE20E943E0D8DEE92E063
:1022A0000E94810D8DEE92E0688141E00E94920DC6
:1022B0008DEE92E00E94C60C892B11F410E005C04F
:1022C0008DEE92E00E94CF0C182F8DEE92E0688187
:1022D0000E94BC0C8DEE92E06AE20E943E0D8D855C
:1022E000882319F482E090E002C080E090E0116061
:1022F000612F70E06861682B792B8DEE92E00E946F
:102300003E0D8DEE92E00E94810DDF91CF911F91E5
:1023100008951F93CF93DF93EC018DEE92E06881D7
:102320000E94BC0C8DEE92E06AE20E943E0D8DEEA2
:1023300092E00E94810D8DEE92E0688141E00E9462
:10234000920D8DEE92E00E94C60C892B11F410E0E4
:1023500005C08DEE92E00E94CF0C182F8DEE92E01A
:1023600068810E94BC0C8DEE92E06AE20E943E0DF4
:10237000612F70E06E7F8DEE92E00E943E0D8DEE3B
:1023800092E00E94810DDF91CF911F910895CF932C
:10239000DF93EC016D874A83662329F424E237E951
:1023A0004FE75CE304C024E237E94FE75BE32987AA
:1023B0003A874B875C878A81843029F4CA01B90146
:1023C0000E946A1B0AC0883061F4CA01B90120E08A
:1023D00030E040E850E40E941D1D69877A878B87B2
:1023E0009C87CE016DE00E9414118DEE92E0688111
:1023F0000E94BC0C8DEE92E06BE20E943E0D8DEED1
:1024000092E060E40E943E0D8DEE92E00E94810D0C
:102410006AE070E080E090E00E94AC12CE010E9481
:1024200089118DEE92E068810E94BC0C8DEE92E0E5
:1024300061E10E943E0D8DEE92E060EC0E943E0D47
:102440008DEE92E00E94810D8DEE92E068810E94F7
:10245000BC0C8DEE92E06EE00E943E0D8A818430CD
:1024600019F461E070E004C0883029F462E070E0A3
:102470008DEE92E003C08DEE92E060E00E943E0D92
:102480008DEE92E00E94810DCE010E944011DF91FD
:10249000CF9108951F920F920FB60F9211242F9390
:1024A0003F934F935F936F937F938F939F93AF93DC
:1024B000BF9320916B0330916C0340916D03509159
:1024C0006E0370916F03DA01C9010296A11DB11D5F
:1024D000672F6A5F6D3730F06D57DA01C9010396D7
:1024E000A11DB11D60936F0380936B0390936C03E8
:1024F000A0936D03B0936E0380916703909168037E
:10250000A0916903B0916A030196A11DB11D80934A
:10251000670390936803A0936903B0936A03BF9124
:10252000AF919F918F917F916F915F914F913F916B
:102530002F910F900FBE0F901F9018958FB7F894A2
:1025400020916B0330916C0340916D0350916E03A9
:102550008FBFB901CA0108959B01AC017FB7F89400
:102560008091670390916803A0916903B0916A0319
:1025700066B5A89B05C06F3F19F00196A11DB11D5E
:102580007FBFBA2FA92F982F8827860F911DA11DD5
:10259000B11D63E0880F991FAA1FBB1F6A95D1F771
:1025A000BC012DC0FFB7F894809167039091680338
:1025B000A0916903B0916A03E6B5A89B05C0EF3FFF
:1025C00019F00196A11DB11DFFBFBA2FA92F982F99
:1025D00088278E0F911DA11DB11DE3E0880F991F63
:1025E000AA1FBB1FEA95D1F7861B970B885E934005
:1025F000C8F2215030404040504068517C4F211576
:1026000031054105510571F60895019739F001979B
:1026100029F0880F991F01970197F1F70895789491
:1026200084B5826084BD84B5816084BD85B58260D7
:1026300085BD85B5816085BDEEE6F0E08081816075
:102640008083E1E8F0E01082808182608083808175
:1026500081608083E0E8F0E0808181608083E1EB4D
:10266000F0E0808184608083E0EBF0E08081816035
:102670008083EAE7F0E080818460808380818260EB
:1026800080838081816080838081806880831092D4
:10269000C1000895982F8E3008F09E509770809159
:1026A00033018295880F880F807C892B80937C0072
:1026B00080917A00806480937A0080917A0086FD10
:1026C000FCCF2091780040917900942F80E030E099
:1026D000282B392BC90108951F93CF93DF93182F0F
:1026E000EB0161E00E94CC13209709F44AC0CF3F70
:1026F000D10509F449C0E12FF0E0E255FF4F849184
:102700008330C1F0843028F4813051F08230B1F54B
:102710000CC0863019F1873049F1843079F514C046
:1027200084B5806884BDC7BD33C084B5806284BD74
:10273000C8BD2EC080918000806880938000D093B7
:102740008900C093880024C08091800080628093BB
:102750008000D0938B00C0938A001AC08091B00093
:1027600080688093B000C093B30012C08091B00025
:1027700080628093B000C093B4000AC0C038D10515
:102780001CF4812F60E002C0812F61E00E940B14D5
:10279000DF91CF911F910895CF93DF93482F50E0A1
:1027A000CA0186569F4FFC0134914A575F4FFA0188
:1027B0008491882369F190E0880F991FFC01E85902
:1027C000FF4FA591B491FC01EE58FF4FC591D491F4
:1027D000662351F42FB7F8948C91932F9095892309
:1027E0008C93888189230BC0623061F42FB7F894F1
:1027F0008C91932F909589238C938881832B888348
:102800002FBF06C09FB7F8948C91832B8C939FBFEA
:10281000DF91CF910895482F50E0CA0182559F4F14
:10282000FC012491CA0186569F4FFC0194914A579E
:102830005F4FFA013491332309F440C0222351F150
:10284000233071F0243028F42130A1F0223011F52A
:1028500014C02630B1F02730C1F02430D9F404C0C0
:10286000809180008F7703C0809180008F7D80935E
:10287000800010C084B58F7702C084B58F7D84BD81
:1028800009C08091B0008F7703C08091B0008F7D28
:102890008093B000E32FF0E0EE0FFF1FEE58FF4FE4
:1028A000A591B4912FB7F894662321F48C9190955B
:1028B000892302C08C91892B8C932FBF0895682F98
:1028C00070E0CB0182559F4FFC012491CB018656CD
:1028D0009F4FFC0144916A577F4FFB0194919923CC
:1028E00019F420E030E03CC0222351F1233071F094
:1028F000243028F42130A1F0223011F514C0263004
:10290000B1F02730C1F02430D9F404C080918000A8
:102910008F7703C0809180008F7D8093800010C0EE
:1029200084B58F7702C084B58F7D84BD09C0809146
:10293000B0008F7703C08091B0008F7D8093B0008E
:10294000892F90E0880F991F84589F4FFC01A59113
:10295000B4918C9120E030E0842311F021E030E04C
:10296000C90108958F929F92AF92BF92CF92DF924A
:10297000EF92FF920F931F93CF93DF93A82FB0E0B6
:10298000CD0186569F4FFC018490AA57BF4FFD0191
:102990008491662311F4992401C0982C59016A018D
:1029A00033E0AA0CBB1CCC1CDD1C3A95D1F724E00B
:1029B000D694C794B794A7942A95D1F7682F70E05E
:1029C000660F771F64587F4FEE24FF248701FB01B9
:1029D000A591B4910BC0EA14FB040C051D0509F484
:1029E0004EC00894E11CF11C011D111D8C91882121
:1029F000891589F30CC0EA14FB040C051D0509F4C4
:102A00003EC00894E11CF11C011D111D03C0FB0117
:102A1000A591B4918C918821891569F720E030E067
:102A200040E050E0FB01C591D4910FC0DA01C9012B
:102A30008E0D9F1DA01FB11F8A159B05AC05BD05FE
:102A4000F1F02F5F3F4F4F4F5F4F888188218915ED
:102A500069F3CA01B90125E130E040E050E00E948D
:102A6000801D9B01AC01205F3F4F4F4F5F4F83E0C4
:102A700056954795379527958A95D1F704C020E05C
:102A800030E040E050E0B901CA01DF91CF911F91E1
:102A90000F91FF90EF90DF90CF90BF90AF909F90FD
:102AA0008F90089508951F920F920FB60F921124E0
:102AB0002F933F934F938F939F93EF93FF93809127
:102AC000C00082FD1DC04091C6002091B00330912E
:102AD000B1032F5F3F4F2F7330708091B2039091FD
:102AE000B3032817390771F0E091B003F091B103F7
:102AF000E059FC4F40833093B1032093B00302C0F0
:102B00008091C600FF91EF919F918F914F913F91DE
:102B10002F910F900FBE0F901F901895E091040415
:102B2000F0910504E05CFF4F81919191208131810A
:102B3000821B930B8F739070892B11F00E9452159A
:102B400008951F920F920FB60F9211242F933F9367
:102B50008F939F93EF93FF932091F4033091F503AC
:102B60008091F6039091F7032817390731F480918B
:102B7000C1008F7D8093C10014C0E091F603F091F5
:102B8000F703EC54FC4F20818091F6039091F703FA
:102B900001968F7390709093F7038093F6032093C0
:102BA000C600FF91EF919F918F913F912F910F90D0
:102BB0000FBE0F901F901895AF92BF92DF92EF92C9
:102BC000FF920F931F93CF93DF93EC017A018B0158
:102BD000DD24D39491E0A92EB12CEC89FD89DD2070
:102BE00069F0C50108A002C0880F991F0A94E2F796
:102BF000808360E874E88EE190E005C0108260E4B4
:102C000072E48FE090E0A80197010E94BE1D215060
:102C1000304040405040569547953795279580E184
:102C20002030380720F0DD2011F0DD24D6CFE889F0
:102C3000F9893083EA89FB89208319A2EE89FF890B
:102C4000408121E030E0C9010C8C02C0880F991F3F
:102C50000A94E2F7482B4083EE89FF894081C9013D
:102C60000D8C02C0880F991F0A94E2F7482B40830D
:102C7000EE89FF894081C9010E8C02C0880F991F1F
:102C80000A94E2F7482B4083EE89FF8980810F8CFC
:102C900002C0220F331F0A94E2F7209528232083D5
:102CA000DF91CF911F910F91FF90EF90DF90BF9038
:102CB000AF900895CF93DF93DC011E968D919C9188
:102CC0001F97EC01C05CDF4FFC01EE5BFF4F2881DA
:102CD00039818081918128173907C9F75696ED917E
:102CE000FC915797408121E030E0C9015C960C903F
:102CF0005C9702C0880F991F0A94E2F7809584239D
:102D000080835696ED91FC9157974081C9015D965D
:102D10000C905D9702C0880F991F0A94E2F7809586
:102D2000842380835696ED91FC9157974081C90189
:102D30005E960C905E9702C0880F991F0A94E2F786
:102D40008095842380835696ED91FC9157978081DE
:102D50005F960C905F9702C0220F331F0A94E2F730
:102D60002095282320831C96ED91FC911D97EE5B06
:102D7000FF4F8081918192938293DF91CF9108954B
:102D8000DC011C96ED91FC911D97E05CFF4F2191B9
:102D9000319180819181281B390B2F733070C901CB
:102DA0000895DC011C96ED91FC911D97E05CFF4FAE
:102DB00020813181E054F040DF01AE5BBF4F8D9147
:102DC0009C9111972817390719F42FEF3FEF07C08F
:102DD0008D919C91E80FF91F8081282F30E0C90167
:102DE0000895DC011C96ED91FC911D97E05CFF4F6E
:102DF00020813181E054F040DF01AE5BBF4F8D9107
:102E00009C9111972817390719F42FEF3FEF10C045
:102E10008D919C911197E80FF91F20818D919C91C4
:102E2000119701968F73907011969C938E9330E05A
:102E3000C9010895DC0191968C919197882339F00E
:102E40005496ED91FC915597808186FFF9CF91962C
:102E50001C920895CF93DF93EC01EE85FF85E05C33
:102E6000FF4F20813181E054F0402F5F3F4F2F739F
:102E70003070DF01AE5BBF4F8D919C911197281789
:102E80003907D1F3E05CFF4F80819181E054F0403D
:102E9000E80FF91F6083EE85FF85E05CFF4F31830B
:102EA0002083EE89FF89208181E090E00F8C02C0B1
:102EB000880F991F0A94E2F7282B208381E089A3C9
:102EC000EC89FD8980818064808381E090E0DF91DE
:102ED000CF9108951092FB031092FA0388EE93E0CD
:102EE000A0E0B0E08093FC039093FD03A093FE0369
:102EF000B093FF0381E092E09093F9038093F8038D
:102F000080E793E0909305048093040484EB93E0BE
:102F1000909307048093060485EC90E09093090455
:102F20008093080484EC90E090930B0480930A044F
:102F300080EC90E090930D0480930C0481EC90E081
:102F400090930F0480930E0482EC90E09093110410
:102F50008093100486EC90E0909313048093120405
:102F600084E08093140483E08093150487E08093C9
:102F7000160485E08093170481E080931804089577
:102F8000CF93DF930E940F130E942902CEE8D5E170
:102F90000E947A062097E1F30E948E15F9CFCF9216
:102FA000DF92EF92FF920F931F93CF93DF937C01F9
:102FB0006B018A01C0E0D0E00FC0D6016D916D01B8
:102FC000D701ED91FC910190F081E02DC7010995A9
:102FD000C80FD91F015010400115110571F7CE011E
:102FE000DF91CF911F910F91FF90EF90DF90CF90E5
:102FF0000895CF93DF93EC016115710519F420E07A
:1030000030E00FC0DB010D900020E9F71197A61BFF
:10301000B70BE881F9810280F381E02DAD010995BC
:103020009C01C901DF91CF9108950E94F91708957D
:10303000FC0144835583668377830895CF93DF93A0
:10304000EC010E949E12688779878A879B87E881B6
:10305000F9810680F781E02DCE0109959C0197FF4B
:1030600015C00E949E12288539854A855B85621BA2
:10307000730B840B950B2C813D814E815F81621710
:1030800073078407950718F32FEF3FEFC901DF910E
:10309000CF910895CF92DF92EF92FF920F931F93FB
:1030A000CF93DF936C018B017A01C0E0D0E009C0BF
:1030B000C6010E941E1897FD07C0F80181938F0179
:1030C0002196CE15DF05A0F3CE01DF91CF911F91A0
:1030D0000F91FF90EF90DF90CF900895813041F0F5
:1030E000813018F08230D1F409C010926E0008953A
:1030F00080916F008D7F80936F00089580917000A4
:103100008D7F8093700081E08093B0008091B1004A
:10311000887F84608093B1001092B30008951F935C
:10312000182F80913401811711F09FEF06C0E2EC57
:10313000F0E094918FEF80933401892F0E946E18F4
:10314000812F60E00E940B141F9108951F920F922F
:103150000FB60F9211242F933F934F935F936F936A
:103160007F938F939F93AF93BF93EF93FF93809140
:10317000280490912904A0912A04B0912B0400976F
:10318000A105B10551F1E0912C04F0912D0480814D
:1031900090912E048927808380912804909129049E
:1031A000A0912A04B0912B04181619061A061B06C2
:1031B000C4F48091280490912904A0912A04B0912C
:1031C0002B040197A109B109809328049093290445
:1031D000A0932A04B0932B0404C0809134010E9470
:1031E0008F18FF91EF91BF91AF919F918F917F9138
:1031F0006F915F914F913F912F910F900FBE0F9064
:103200001F9018952F923F925F926F927F928F92AC
:103210009F92AF92BF92CF92DF92EF92FF920F9365
:103220001F93DF93CF9300D000D0CDB7DEB7A82F88
:103230001B0129833A834B835C83809134018A1775
:1032400021F4E2ECF0E0549082C08F3F09F0DAC143
:10325000A0933401E2ECF0E054902FEF521609F401
:10326000D1C181E0581639F192E0591609F449C0EC
:10327000552009F06CC014BC15BC84B5826084BDB7
:1032800085B5816085BD2A2F30E0F901EA57FF4FEF
:10329000E491F0E0EE0FFF1FEE58FF4F85919491FF
:1032A00090931F0480931E0426563F4FF90184918A
:1032B000809320044EC01092800010928100809173
:1032C000810088608093810080918100816080937B
:1032D00081002A2F30E0F901EA57FF4FE491F0E036
:1032E000EE0FFF1FEE58FF4F8591949190932604A7
:1032F0008093250426563F4FF9018491809327043B
:1033000028C01092B0001092B1008091B00082608D
:103310008093B0008091B10081608093B1002A2F2A
:1033200030E0F901EA57FF4FE491F0E0EE0FFF1FA4
:10333000EE58FF4F8591949190932D0480932C0427
:1033400026563F4FF901849180932E0402C057FC0A
:1033500059C18A2F61E00E94CC13552021F0F2E080
:103360005F1609F0BEC031018824992460E079E03D
:103370008DE390E0A40193010E94E01D59016A01D0
:10338000860175010894E108F108010911092FEF80
:10339000E216F1040105110509F008F499C060E294
:1033A00071EA87E090E0A40193010E94E01D790199
:1033B0008A010894E108F1080109110982E0581610
:1033C000C1F49FEFE916F1040105110509F008F4B5
:1033D00084C068E478EE81E090E0A40193010E944B
:1033E000E01D79018A010894E108F1080109110939
:1033F00083E0AFEFEA16F1040105110509F008F4C6
:1034000068C064E274EF80E090E0A40193010E9440
:10341000E01D79018A010894E108F1080109110908
:10342000552011F483E01DC0B2E05B1611F084E07A
:1034300018C0EFEFEE16F1040105110509F008F4CC
:10344000DFC062E17AE780E090E0A40193010E948E
:10345000E01D79018A010894E108F10801091109C8
:1034600085E0FFEFEF16F1040105110591F188F1F8
:1034700069E07DE380E090E0A40193010E94E01DFB
:1034800079018A010894E108F10801091109552020
:1034900011F086E001C084E02FEFE216F10401058F
:1034A0001105B9F0B0F0C601B50120E034E040E00C
:1034B00050E00E94E01D79018A010894E108F108BA
:1034C00001091109552011F087E008C085E003C00B
:1034D00081E0552019F485BD3AC082E08093B100A7
:1034E00036C05101CC24DD2460E079E08DE390E02A
:1034F000A60195010E94E01D79018A010894E10866
:10350000F1080109110980E0E81680E0F80681E081
:10351000080780E0180710F491E010C064E274EF2F
:1035200080E090E0A60195010E94E01D79018A01EA
:103530000894E108F1080109110993E0A1E05A1685
:1035400031F480918100887F982B9093810089814C
:103550009A81AB81BC810097A105B10529F48FEF59
:103560009FEFAFEFBFEF13C0220C331CB10180E01F
:1035700090E029813A814B815C810E94801D28EE78
:1035800033E040E050E00E94BE1DC901DA01E1E0F5
:103590005E16A1F0F2E05F1619F1552099F5E7BC2F
:1035A00080931A0490931B04A0931C04B0931D04F1
:1035B00080916E00826080936E0024C0F09289003A
:1035C000E09288008093210490932204A093230426
:1035D000B093240480916F00826080936F0012C0CA
:1035E000E092B3008093280490932904A0932A04C6
:1035F000B0932B048091700082608093700002C0B1
:1036000084E06CCF0F900F900F900F90CF91DF91CF
:103610001F910F91FF90EF90DF90CF90BF90AF90F0
:103620009F908F907F906F905F903F902F90089524
:103630002F923F924F925F926F927F928F929F92C2
:10364000AF92BF92CF92DF92EF92FF920F931F93B0
:10365000DF93CF93CDB7DEB73B014C0119012A01AF
:103660006D897E898F89988D6A197B098C099D09DE
:10367000621A730A840A950AA40193010E94801DAC
:10368000E218F30804091509A80197010E94E01D3A
:103690002A0D3B1D4C1D5D1DB901CA01CF91DF9163
:1036A0001F910F91FF90EF90DF90CF90BF90AF9060
:1036B0009F908F907F906F905F904F903F902F9052
:1036C0000895009729F0BC0180E090E00E94E70097
:1036D00008955058BB27AA270ED071C162D130F08F
:1036E00067D120F031F49F3F11F41EF457C10EF45E
:1036F000E095E7FB4DC1E92F73D180F3BA1762075C
:1037000073078407950718F071F49EF58BC10EF4CA
:10371000E0950B2EBA2FA02D0B01B90190010C01E1
:10372000CA01A0011124FF27591B99F0593F50F4F9
:10373000503E68F11A16F040A22F232F342F442751
:10374000585FF3CF469537952795A795F040539549
:10375000C9F77EF41F16BA0B620B730B840BBAF019
:103760009150A1F0FF0FBB1F661F771F881FC2F784
:103770000EC0BA0F621F731F841F48F48795779598
:103780006795B795F7959E3F08F0B3CF9395880F4F
:1037900008F09927EE0F9795879508950CD00FC1E3
:1037A00007D140F0FED030F021F45F3F19F0F0C0B7
:1037B000511139C1F3C014D198F39923C9F355239A
:1037C000B1F3951B550BBB27AA2762177307840714
:1037D00038F09F5F5F4F220F331F441FAA1FA9F3CA
:1037E00033D00E2E3AF0E0E830D091505040E695BC
:1037F000001CCAF729D0FE2F27D0660F771F881F1D
:10380000BB1F261737074807AB07B0E809F0BB0B0B
:10381000802DBF01FF2793585F4F2AF09E3F51052F
:1038200068F0B6C000C15F3FECF3983EDCF38695CC
:1038300077956795B795F7959F5FC9F7880F911DA5
:103840009695879597F90895E1E0660F771F881F91
:10385000BB1F621773078407BA0720F0621B730B44
:10386000840BBA0BEE1F88F7E095089504D0689496
:10387000B111D9C00895BCD088F09F5790F0B92FEE
:103880009927B751A0F0D1F0660F771F881F991FB5
:103890001AF0BA95C9F712C0B13081F0C3D0B1E0C7
:1038A0000895C0C0672F782F8827B85F39F0B93FD7
:1038B000CCF3869577956795B395D9F73EF49095B7
:1038C0008095709561957F4F8F4F9F4F0895E89435
:1038D00009C097FB3EF490958095709561957F4F58
:1038E0008F4F9F4F9923A9F0F92F96E9BB27939506
:1038F000F695879577956795B795F111F8CFFAF416
:10390000BB0F11F460FF1BC06F5F7F4F8F4F9F4F46
:1039100016C0882311F096E911C0772321F09EE8A4
:10392000872F762F05C0662371F096E8862F70E00A
:1039300060E02AF09A95660F771F881FDAF7880FE4
:103940009695879597F90895990F0008550FAA0B3A
:10395000E0E8FEEF16161706E807F907C0F01216A2
:103960001306E407F50798F0621B730B840B950BA5
:1039700039F40A2661F0232B242B252B21F40895FA
:103980000A2609F4A140A6958FEF811D811D089597
:1039900097F99F6780E870E060E008959FEF80EC02
:1039A000089500240A9416161706180609060895A5
:1039B00000240A9412161306140605060895092E0B
:1039C0000394000C11F4882352F0BB0F40F4BF2B7A
:1039D00011F460FF04C06F5F7F4F8F4F9F4F0895BA
:1039E00057FD9058440F551F59F05F3F71F04795B0
:1039F000880F97FB991F61F09F3F79F08795089595
:103A0000121613061406551FF2CF4695F1DF08C0B3
:103A1000161617061806991FF1CF869571056105D0
:103A200008940895E894BB2766277727CB0197F978
:103A300008958ADF08F48FEF08950BD0C0CFB1DF6F
:103A400028F0B6DF18F0952309F0A2CFA7CF1124F4
:103A5000EACFC6DFA0F3959FD1F3950F50E0551F35
:103A6000629FF001729FBB27F00DB11D639FAA27D3
:103A7000F00DB11DAA1F649F6627B00DA11D661F22
:103A8000829F2227B00DA11D621F739FB00DA11D43
:103A9000621F839FA00D611D221F749F3327A00DFD
:103AA000611D231F849F600D211D822F762F6A2F99
:103AB00011249F5750408AF0E1F088234AF0EE0F1E
:103AC000FF1FBB1F661F771F881F91505040A9F72B
:103AD0009E3F510570F05CCFA6CF5F3FECF3983E60
:103AE000DCF3869577956795B795F795E7959F5F92
:103AF000C1F7FE2B880F911D9695879597F908952C
:103B0000629FD001739FF001829FE00DF11D649FC1
:103B1000E00DF11D929FF00D839FF00D749FF00D4D
:103B2000659FF00D9927729FB00DE11DF91F639FEE
:103B3000B00DE11DF91FBD01CF0111240895991B9E
:103B400079E004C0991F961708F0961B881F7A9594
:103B5000C9F78095089597FB092E07260AD077FDAF
:103B600004D049D006D000201AF4709561957F4F9B
:103B70000895F6F7909581959F4F0895A1E21A2E2A
:103B8000AA1BBB1BFD010DC0AA1FBB1FEE1FFF1F01
:103B9000A217B307E407F50720F0A21BB30BE40B51
:103BA000F50B661F771F881F991F1A9469F7609598
:103BB0007095809590959B01AC01BD01CF01089552
:103BC00097FB092E05260ED057FD04D0D7DF0AD06B
:103BD000001C38F450954095309521953F4F4F4F3C
:103BE0005F4F0895F6F790958095709561957F4F9A
:103BF0008F4F9F4F0895AA1BBB1B51E107C0AA1FFF
:103C0000BB1FA617B70710F0A61BB70B881F991F7D
:103C10005A95A9F780959095BC01CD010895EE0FB6
:103C2000FF1F0590F491E02D09942F923F924F923F
:103C30005F926F927F928F929F92AF92BF92CF923C
:103C4000DF92EF92FF920F931F93CF93DF93CDB745
:103C5000DEB7CA1BDB0B0FB6F894DEBF0FBECDBFBD
:103C600009942A88398848885F846E847D848C848E
:103C70009B84AA84B984C884DF80EE80FD800C8197
:103C80001B81AA81B981CE0FD11D0FB6F894DEBF7A
:0C3C90000FBECDBFED010895F894FFCFEA
:103C9C00424344300D0A00424754320D0A0042534D
:103CAC0054335374756475696E6F2D000D0A0042A0
:103CBC0052530D0A0001000000FFFFFFFFFFFFFF42
:103CCC00FFE80301FF0E0F10111213210023002532
:103CDC0000270029002C002E003100340037003A58
:103CEC00003E004100450049004E00520057005C68
:103CFC0000620068006E0075007B0082008B0093F0
:103D0C00009C00A500AF00B900C400D000DC00E9A5
:103D1C0000F70006011501260137014A015D017209
:103D2C000188019F01B801D201EE010B022A024B5E
:103D3C00026E029302BA02E40210033F037003A462
:103D4C0003DC03170455049704DD0427057505C827
:103D5C000520067D06E0064907B8072D08A9082DA1
:103D6C0009B9094D0AEA0A900B400CFA0CC00D91E6
:103D7C000E6F0F5A1002040708090A0B0C00000002
:103D8C00003E0D0D0DC60CCF0CE40CF50C00000024
:0E3D9C00002A17CF17C016F116D1161A1700FD
:00000001FF
